:100000000C9434000C9446000C9446000C9446006A
:100010000C94CA000C9446000C9446000C944600C4
:100020000C9446000C9446000C9446000C945D0021
:100030000C944E000C9446000C9446000C94460020
:100040000C9446000C9446000C9446000C94460018
:100050000C9446000C9446000C9446000C94460008
:100060000C9446000C94460011241FBECFEFD8E03C
:10007000DEBFCDBF21E0A0E0B1E001C01D92A730FE
:10008000B207E1F70E9487010C94D9030C94000099
:10009000882311F02D9A08952D9808951F920F929C
:1000A0000FB60F9211248F938BB18B7A8BB98F91EE
:1000B0000F900FBE0F901F9018951F920F920FB6C2
:1000C0000F9211242F933F934F935F936F937F93DE
:1000D0008F939F93AF93BF93EF93FF936091000132
:1000E00070910101809102019091030120E030E0C4
:1000F000A9010E946B028823B1F19BB18091040198
:10010000892B8BB980910401823049F0843061F0F1
:10011000813071F48BB18F758BB95B9A09C08BB14B
:1001200087778BB95D9A04C08BB1877D8BB95F9A55
:1001300080910501823049F0843061F0813079F49A
:100140008BB18F7A8BB95A9A14C08BB18B7B8BB9D8
:100150005C9A0FC08BB18B7E8BB95E9A0AC08BB153
:100160008B7A8BB906C08BB18B7A8BB98BB18775C3
:100170008BB9FF91EF91BF91AF919F918F917F913B
:100180006F915F914F913F912F910F900FBE0F9004
:100190001F9018951F920F920FB60F9211242F9354
:1001A0003F934F935F936F937F938F939F93AF93FF
:1001B000BF93CF93EF93FF93339902C0349B05C055
:1001C00010920401109205014AC0A09106012FEF80
:1001D0003FEF61E070E0C2E0B0E086B1A9014F5F9F
:1001E0005F4F8A2790E0042E02C0959587950A9468
:1001F000E2F780FF2FC086B1FB01042E02C0EE0F94
:10020000FF1F0A94E2F790E08E239F231816190629
:100210008CF433230CF42C2FCB0102C0880F991FD0
:100220002A95E2F780959091050189238E2B809382
:10023000050110C033230CF42C2FCB0102C0880F12
:10024000991F2A95E2F780959091040189238E2BBE
:10025000809304019A014230510509F0BECF86B166
:1002600080930601FF91EF91CF91BF91AF919F9144
:100270008F917F916F915F914F913F912F910F904F
:100280000FBE0F901F901895ECE7F0E0808180641E
:100290008083808185608083EAE7F0E080818768E1
:1002A0008083AEE7B0E08C9180628C938081806423
:1002B0008083089589E08093810086E080936F00B9
:1002C000109285001092840088EE93E0909389004C
:1002D0008093880010928B0010928A00089517B8BE
:1002E0008FEF88B99AB18AB91BB8259A15B8E8E694
:1002F000F0E0808182608083ECE6F0E080818F61B5
:1003000080830E945A010E944401789408950E94BB
:100310006F0180E00E944800CAE7D0E00F2EF8E7A6
:10032000EF2EF12CF02D0AE810E0888186FDFDCF3C
:10033000F701408151819A01A1E3BDE80E94CA03FF
:10034000481B590B56954795BC01640F751F660FE6
:10035000672F661F770B719580E090E00E94A602E0
:1003600026E636E646E950E40E94FE014B015C01B8
:1003700020E030E040E85FE30E94580318166CF07C
:1003800020E030E0A901C501B4010E946B0288237E
:1003900064F4812C912C540108C00F2E812C912CD7
:1003A000F0E8AF2EFFE3BF2EF02D80920001909277
:1003B0000101A0920201B092030120E030E04AE77F
:1003C00054E4C501B4010E945D030E947002F8016B
:1003D0007183608380819181892B19F081E00E9473
:1003E0004800FFEF23EC89E0F15020408040E1F726
:1003F00000C0000088818064888397CF5058BB2755
:10040000AA270E9416020C941E030E94100338F0C3
:100410000E94170320F039F49F3F19F426F40C943E
:100420000D030EF4E095E7FB0C940703E92F0E94FF
:100430002F0358F3BA17620773078407950720F054
:1004400079F4A6F50C9451030EF4E0950B2EBA2F17
:10045000A02D0B01B90190010C01CA01A0011124CA
:10046000FF27591B99F0593F50F4503E68F11A1676
:10047000F040A22F232F342F4427585FF3CF469507
:1004800037952795A795F0405395C9F77EF41F1629
:10049000BA0B620B730B840BBAF09150A1F0FF0FF3
:1004A000BB1F661F771F881FC2F70EC0BA0F621FDF
:1004B000731F841F48F4879577956795B795F795CF
:1004C0009E3F08F0B0CF9395880F08F09927EE0F64
:1004D0009795879508950E94E30208F481E00895B6
:1004E0000E9477026894B1110C94520308950E94FF
:1004F000370388F09F5798F0B92F9927B751B0F07C
:10050000E1F0660F771F881F991F1AF0BA95C9F797
:1005100014C0B13091F00E945103B1E008950C94E1
:100520005103672F782F8827B85F39F0B93FCCF394
:10053000869577956795B395D9F73EF49095809514
:10054000709561957F4F8F4F9F4F0895E89409C034
:1005500097FB3EF490958095709561957F4F8F4FF6
:100560009F4F9923A9F0F92F96E9BB279395F6950C
:10057000879577956795B795F111F8CFFAF4BB0F8A
:1005800011F460FF1BC06F5F7F4F8F4F9F4F16C0EE
:10059000882311F096E911C0772321F09EE8872F78
:1005A000762F05C0662371F096E8862F70E060E034
:1005B0002AF09A95660F771F881FDAF7880F9695AD
:1005C000879597F90895990F0008550FAA0BE0E851
:1005D000FEEF16161706E807F907C0F01216130605
:1005E000E407F50798F0621B730B840B950B39F445
:1005F0000A2661F0232B242B252B21F408950A26AB
:1006000009F4A140A6958FEF811D811D089597F9EA
:100610009F6780E870E060E008959FEF80EC0895A8
:1006200000240A94161617061806090608950024D1
:100630000A9412161306140605060895092E03944B
:10064000000C11F4882352F0BB0F40F4BF2B11F4BF
:1006500060FF04C06F5F7F4F8F4F9F4F089557FD1E
:100660009058440F551F59F05F3F71F04795880F20
:1006700097FB991F61F09F3F79F0879508951216B7
:1006800013061406551FF2CF4695F1DF08C0161663
:1006900017061806991FF1CF869571056105089414
:1006A0000895E894BB2766277727CB0197F908952B
:1006B0000E94E30208F48FEF08950E9470030C94E7
:1006C0001E030E94100338F00E94170320F09523A8
:1006D00011F00C9407030C940D0311240C94520395
:1006E0000E942F0370F3959FC1F3950F50E0551FA3
:1006F000629FF001729FBB27F00DB11D639FAA2777
:10070000F00DB11DAA1F649F6627B00DA11D661FC5
:10071000829F2227B00DA11D621F739FB00DA11DE6
:10072000621F839FA00D611D221F749F3327A00DA0
:10073000611D231F849F600D211D822F762F6A2F3C
:1007400011249F5750409AF0F1F088234AF0EE0FA1
:10075000FF1FBB1F661F771F881F91505040A9F7CE
:100760009E3F510580F00C9407030C9452035F3FA9
:10077000E4F3983ED4F3869577956795B795F7950A
:10078000E7959F5FC1F7FE2B880F911D9695879582
:1007900097F90895A29FB001B39FC001A39F700D68
:1007A000811D1124911DB29F700D811D1124911D79
:0607B0000895F894FFCF4C
:00000001FF
