S0260000436F6E74726F6C61646F7242616775616C50726F6772616D56312E322E312E737265630D
S11300000C9434000C9446000C9446000C94460066
S11300100C94D5000C9446000C9446000C944600B5
S11300200C9446000C9446000C9446000C948200F8
S11300300C9473000C9446000C9446000C944600F7
S11300400C9446000C9446000C9446000C94460014
S11300500C9446000C9448000C9446000C94460002
S11300600C9446000C94460011241FBECFEFD8E038
S1130070DEBFCDBF21E0A0E0B1E001C01D92A830F9
S1130080B207E1F70E9492010C94F3010C94000072
S11300901F920F920FB60F9211248F939F93AF93D9
S11300A0BF9381E08093040110920001109201013A
S11300B010920201109203018091780090917900CE
S11300C0A0E0B0E08093000190930101A0930201AD
S11300D0B0930301BF91AF919F918F910F900FBE89
S11300E00F901F9018951F920F920FB60F92112424
S11300F08F938BB18B7A8BB98F910F900FBE0F902A
S11301001F9018951F920F920FB60F9211248F9380
S11301109F93AF93BF938091000190910101A091AF
S11301200201B0910301892B8A2B8B2BA9F19BB17E
S113013080910501892B8BB980910501823049F0AA
S1130140843061F0813071F48BB18F758BB95B9A17
S113015009C08BB187778BB95D9A04C08BB1877D59
S11301608BB95F9A80910601823049F0843061F046
S1130170813079F48BB18F7A8BB95A9A0DC08BB1D7
S11301808B7B8BB95C9A08C08BB18B7E8BB95E9AE2
S113019003C08BB18B7A8BB9BF91AF919F918F9133
S11301A00F900FBE0F901F9018951F920F920FB6CD
S11301B00F9211242F933F934F935F936F937F93E9
S11301C08F939F93AF93BF93CF93EF93FF93339901
S11301D002C0349B05C010920501109206014AC06A
S11301E0A09107012FEF3FEF61E070E0C2E0B0E0C3
S11301F086B1A9014F5F5F4F8A2790E0042E02C0A9
S1130200959587950A94E2F780FF2FC086B1FB018C
S1130210042E02C0EE0FFF1F0A94E2F790E08E2333
S11302209F23181619068CF433230CF42C2FCB01BE
S113023002C0880F991F2A95E2F7809590910601D4
S113024089238E2B8093060110C033230CF42C2FAA
S1130250CB0102C0880F991F2A95E2F780959091EF
S1130260050189238E2B809305019A0142305105A3
S113027009F0BECF86B180930701FF91EF91CF9132
S1130280BF91AF919F918F917F916F915F914F91AA
S11302903F912F910F900FBE0F901F901895ECE790
S11302A0F0E0808180648083808185608083EAE7D8
S11302B0F0E080818F6A808310927B00AEE7B0E02B
S11302C08C9180628C93808180648083089589E01E
S11302D08093810086E080936F00109285001092D5
S11302E0840088EE93E090938900809388001092B4
S11302F08B0010928A00089517B88FEF88B99AB1CD
S11303008AB91BB8E8E6F0E0808182608083ECE67D
S1130310F0E080818F6180830E9467010E944F0119
S1130320789408950E947C010F2ECC24CA94F3E0A3
S1130330DF2EE12CF12CF02DCAE8D0E080910401ED
S11303408823E1F31092040120910001309101010E
S11303504091020150910301A8EEB3E00E94D9013B
S1130360A70196010E94B70139832883E7CFA1E250
S11303701A2EAA1BBB1BFD010DC0AA1FBB1FEE1F1B
S1130380FF1FA217B307E407F50720F0A21BB30B66
S1130390E40BF50B661F771F881F991F1A9469F7E2
S11303A060957095809590959B01AC01BD01CF013E
S11303B008950E94E401A59F900DB49F900DA49F01
S11303C0800D911D11240895A29FB001B39FC00117
S11303D0A39F700D811D1124911DB29F700D811D6D
S10D03E01124911D0895F894FFCF35
S9030000FC
